S02B00004D554C5449524F4C455F4D554C5449434F4E4E4543545F53414D4231315F58504C41494E45445F50DC
S3151000800010B5184B184A9A4203D0184B154A9A4283
S3151000801004D3174B174A9A4210D31EE0164B134A35
S315100080200332D21A92080132920000230D480E49EB
S31510008030CC58C45004339342FAD1EAE70F4B0C499B
S315100080400331C91A8908013189000023094C00201F
S315100080501A19106004338B42FAD1094B9847094B11
S31510008060984710BD981B0110981B0110241C011075
S3151000807008370110241C01109C1B0110281C01102C
S31510008080E1F80010EDB9001010B5064C2378002B5E
S3151000809007D1054B002B02D0044800E000BF012396
S315100080A0237010BD241C011000000000981B011045
S315100080B008B5084B002B03D00748084900E000BF5D
S315100080C007480368002B00D108BD064B002BFBD0D8
S315100080D09847F9E700000000981B0110281C0110B2
S315100080E0981B01100000000008B50D4B1B7D002BDE
S315100080F007D001220A4B1A730A4B1B68002B00D0BB
S3151000810098473423064AD35C002B07D001212C2331
S31510008110D154054B1B68002B00D0984708BDC046AC
S3151000812000100040401C0110441C01100123037074
S315100081300373022242704273837083730022C270EB
S31510008140C273037103748260426102767047C0463F
S31510008150002807D1002902D1064B1A6009E0054B09
S315100081609A6106E0002902D1024B1A6201E0014B26
S315100081709A63704700100040002805D1064A117A0C
S3151000818080230B43137205E003492822885C802361
S3151000819003438B547047C04600100040002805D199
S315100081A0064A117A7F230B40137205E003492822F1
S315100081B0885C7F2303408B547047C04600100040F4
S315100081C038B5041C0420394B98472378002B02D16C
S315100081D0237B002B65D03649CA6820231343CB6016
S315100081E0237E032213401A018B69302083431343E5
S315100081F08B612378002B26D063780121002B03D0C6
S31510008200023B5D425D41A901E27892000C252A40AD
S31510008210A3785B000A3D2B401A43151C0D432379A6
S31510008220002B01D020231D43224BA2681A601D7219
S315100082301F49C4225200885C012303438B5400203B
S315100082401D4B984700E00025237B002B29D0637B2C
S31510008250002B05D0012B05D0022B04D1402502E0BE
S31510008260012500E00025E37B9B000C211940A27B31
S315100082705200022313400B431D43237C002B01D0D5
S3151000828020231D4362690B4B1A6228229D5408490C
S315100082906132FF32885C022303438B540120064B64
S315100082A098471E200549064B984738BD218800106F
S315100082B000B000400010004079810010E9800010E5
S315100082C0898C0010002802D1024B196001E0024B84
S315100082D019607047401C0110441C011070B50C0A3F
S315100082E0FF231940072835D8514A556CF83B0340EF
S315100082F09B0007269E40B5435564556C0E1C9E4048
S31510008300331C2B435364012900D090E0032810D866
S31510008310111CD02252008D5803231840C0003C3344
S3151000832083409D438D508B588440201C18438850A1
S315100083307DE03F49D22252008D5803231840C000D9
S315100083403C3383409D438D508B588440201C1843EA
S3151000835088506CE00F2834D8354A956C07230340B3
S315100083609B0007269E40B5439564956C0E1C9E4057
S31510008370331C2B439364012959D10B2810D8111C97
S31510008380D42252008D5803231840C0003C3383403A
S315100083909D438D508B588440201C1843885046E0CE
S315100083A02349D62252008D5803231840C0003C336F
S315100083B083409D438D508B588440201C1843885011
S315100083C035E0172833D81A4AD56C072303409B008B
S315100083D007269E40B543D564D56C0E1C9E40331CB3
S315100083E02B43D364012922D1132810D8111CD8226B
S315100083F052008D5803231840C0003C3383409D43E0
S315100084008D508B588440201C184388500FE0084A22
S31510008410DA235B00D15803252840C0003C3585403F
S31510008420A943D150D1588440201C0843D05070BD68
S3151000843000B0004001280DD0002802D002281CD020
S315100084402EE0184A90690C2303439361164A174B82
S315100084501A601AE0134B9869082202439A619A69C6
S31510008460042082439A61124A536880200003034312
S315100084705360104A0D4B1A6007E00A4A93690C20A4
S3151000848083439361084A094B1A60064B9A69032085
S3151000849082439A619A69014011439961002000E074
S315100084A01720704700B0004080BA8C017C23011061
S315100084B000F0004080841E00014B18687047C046CB
S315100084C07C23011000B5352800D9A2E18000D24BDB
S315100084D01B589F46D14AD16802230B43D360002014
S315100084E098E1CE4AD16804230B43D360002091E172
S315100084F0CA4AD16808230B43D36000208AE1C74AD1
S31510008500D16810230B43D360002083E1C34AD1689E
S3151000851020230B43D36000207CE1C04AD16880231E
S315100085200B43D360002075E1BC4AD3688021490013
S315100085300B43D36000206DE1B84AD368802109014E
S315100085400B43D360002065E1B44AD368802149010A
S315100085500B43D36000205DE1B04AD36880218901C6
S315100085600B43D360002055E1AC4AD3688021C90182
S315100085700B43D36000204DE1A84AD368802109023D
S315100085800B43D360002045E1A44AD36880214902F9
S315100085900B43D36000203DE1A04AD36880218902B5
S315100085A00B43D360002035E19C4AD3688021C90271
S315100085B00B43D36000202DE1984AD368802109032C
S315100085C00B43D360002025E1944AD36880214903E8
S315100085D00B43D36000201DE1904AD36880218903A4
S315100085E00B43D360002015E18C4AD3688021C90360
S315100085F00B43D36000200DE1884AD368802109041B
S315100086000B43D360002005E1844AD36880214904D6
S315100086100B43D3600020FDE0804AD3688021890493
S315100086200B43D3600020F5E07C4AD3688021C9044F
S315100086300B43D3600020EDE0784AD368802109050A
S315100086400B43D3600020E5E0744AD36880214905C6
S315100086500B43D3600020DDE0704AD3688021890582
S315100086600B43D3600020D5E06C4AD3688021C9053E
S315100086700B43D3600020CDE0684A116901230B43F8
S3151000868013610020C6E0654A116902230B4313618A
S315100086900020BFE0614A116904230B4313610020D7
S315100086A0B8E05E4A116908230B4313610020B1E05C
S315100086B05A4A116910230B4313610020AAE0574A46
S315100086C0116920230B4313610020A3E0534A11695B
S315100086D040230B43136100209CE0504A116980230C
S315100086E00B431361002095E04C4A13698021490021
S315100086F00B43136100208DE0484A136980218900DD
S315100087000B431361002085E0444A13698021C90098
S315100087100B43136100207DE0404A13698021090153
S315100087200B431361002075E03C4A1369802149010F
S315100087300B43136100206DE0384A136980218901CB
S315100087400B431361002065E0344A13698021C90187
S315100087500B43136100205DE0304A13698021090242
S315100087600B431361002055E02C4A136980214902FE
S315100087700B43136100204DE0284A136980218902BA
S315100087800B431361002045E0244A13698021C90276
S315100087900B43136100203DE0204A13698021090331
S315100087A00B431361002035E01C4A136980214903ED
S315100087B00B43136100202DE0184A136980218903A9
S315100087C00B431361002025E0144A13698021C90365
S315100087D00B43136100201DE0104A13698021090420
S315100087E00B431361002015E00C4A117D01230B4346
S315100087F0137500200EE0094A117D02230B431375F1
S31510008800002007E0054A117D04230B431375002051
S3151000881000E0172000BDC046E40A011000B0004079
S3151000882000B5432800D923E28000E04B1B589F4631
S31510008830DF4B596802229143596059680A435A60BE
S31510008840002016E2DA4B59680422914359605968A0
S315100088500A435A6000200CE2D54B5968082291430E
S31510008860596059680A435A60002002E2D04B596891
S3151000887010229143596059680A435A600020F8E162
S31510008880CB4B596820229143596059680A435A6064
S315100088900020EEE1C64B5968402291435960596851
S315100088A00A435A600020E4E1C14B59688022914383
S315100088B0596059680A435A600020DAE1BC4B59687E
S315100088C0BC4A0A405A605A68802149000A435A60D5
S315100088D00020CEE1B64B5968B74A0A405A605A682A
S315100088E0802189000A435A600020C2E1B04B5968C2
S315100088F0B24A0A405A605A688021C9000A435A602F
S315100089000020B6E1AA4B5968AD4A0A405A605A6827
S31510008910802109010A435A600020AAE1A44B596834
S31510008920A84A0A405A605A68802149010A435A6087
S3151000893000209EE19E4B5968A34A0A405A605A6825
S31510008940802189010A435A60002092E1984B5968A8
S315100089509E4A0A405A605A688021C9010A435A60E1
S31510008960002086E1924B5968994A0A405A605A6823
S31510008970802109020A435A6000207AE18C4B59681B
S31510008980944A0A405A605A68802149020A435A603A
S3151000899000206EE1864B59688F4A0A405A605A6821
S315100089A0802189020A435A60002062E1804B59688F
S315100089B08A4A0A405A605A688021C9020A435A6094
S315100089C0002056E17A4B5968854A0A405A605A681F
S315100089D0802109030A435A6000204AE1744B596802
S315100089E0804A0A405A605A68802149030A435A60ED
S315100089F000203EE16E4B59687B4A0A405A605A681D
S31510008A00802189030A435A60002032E1684B596875
S31510008A10764A0A405A605A688021C9030A435A6046
S31510008A20002026E1624B5968714A0A405A605A681A
S31510008A30802109040A435A6000201AE15C4B5968E8
S31510008A406C4A0A405A605A68802149040A435A609F
S31510008A5000200EE1564B5968674A0A405A605A6818
S31510008A60802189040A435A60002002E1504B59685C
S31510008A70624A0A405A605A688021C9040A435A60F9
S31510008A800020F6E04A4B59685D4A0A405A605A6817
S31510008A90802109050A435A600020EAE0444B5968D0
S31510008AA0584A0A405A605A68802149050A435A6052
S31510008AB00020DEE03E4B5968534A0A405A605A6815
S31510008AC0802189050A435A600020D2E0384B596844
S31510008AD04E4A0A405A605A688021C9050A435A60AC
S31510008AE00020C6E0324A53685B005B085360536847
S31510008AF0802109060B4353600020BAE02C4B1A89DB
S31510008B0001218A431A81198901220A431A810020F8
S31510008B10AFE0274B1A8902218A431A81198902224A
S31510008B200A431A810020A4E0214B1A8904218A43A2
S31510008B301A81198904220A431A81002099E01C4BD4
S31510008B401A8908218A431A81198908220A431A8127
S31510008B5000208EE0164B1A8910218A431A81198932
S31510008B6010220A431A81002083E0114B1A89202112
S31510008B708A431A81198920220A431A81002078E033
S31510008B800B4B1A8940218A431A81198940220A43BC
S31510008B901A8100206DE0064B1A8980218A431A81BA
S31510008BA0198980220A431A81002062E0BC0B011049
S31510008BB000B00040FFFEFFFFFFFDFFFFFFFBFFFFC2
S31510008BC0FFF7FFFFFFEFFFFFFFDFFFFFFFBFFFFF17
S31510008BD0FF7FFFFFFFFFFEFFFFFFFDFFFFFFFBFF16
S31510008BE0FFFFF7FFFFFFEFFFFFFFDFFFFFFFBFFFF7
S31510008BF0FFFF7FFFFFFFFFFEFFFFFFFDFFFFFFFBF6
S31510008C00FFFFFFF7FFFFFFEFFFFFFFDFFFFFFFBFD6
S31510008C10184B1989184A0A401A811989802252005C
S31510008C200A431A81002024E0124B1989134A0A407C
S31510008C301A811989802292000A431A81002018E0AD
S31510008C400C4B19890E4A0A401A8119898022D200C2
S31510008C500A431A8100200CE0064B1989094A0A407A
S31510008C601A811989802212010A431A81002000E014
S31510008C70172000BD00B00040FFFEFFFFFFFDFFFF05
S31510008C80FFFBFFFFFFF7FFFF8023DB049C466044DA
S31510008C90800001607047C04638B5204B1C682368B9
S31510008CA01D7DEDB26A0613D51E212222A1541A7E0D
S31510008CB023318A431A762123E35C1B0706D520232A
S31510008CC0E35C1B0702D5201C2369984723681B7C8D
S31510008CD0EB0722D523681B7CDBB2626913706369CC
S31510008CE001336361A38B013B9BB2A383A38B9BB21E
S31510008CF0002B12D12133E35C5B070ED52023E35CF6
S31510008D005B070AD500222223E2542268137E012132
S31510008D108B431376E368201C984738BD80230110D7
S31510008D2038B5214B1C6823681D79EDB2EA0717D5B3
S31510008D30A2691178C9B20132A2611970E38B013BA5
S31510008D409BB2E383E38B9BB2002B09D12268137A83
S31510008D5001218B4313722268117A10230B4313726D
S31510008D60EB0612D52123E35CDB070ED52023E35C4B
S31510008D70DB070AD500222223E2542268137A102137
S31510008D808B431372201C63689847AB060AD52123C0
S31510008D90E35C9B0706D52023E35C9B0702D5A368FB
S31510008DA0201C984738BDC0468023011038B5204B8B
S31510008DB05C6823681D7DEDB26A0613D51E2122223A
S31510008DC0A1541A7E23318A431A762123E35C1B07AA
S31510008DD006D52023E35C1B0702D5201C2369984780
S31510008DE023681B7CEB0722D523681B7CDBB26269E8
S31510008DF01370636901336361A38B013B9BB2A38339
S31510008E00A38B9BB2002B12D12133E35C5B070ED5EB
S31510008E102023E35C5B070AD500222223E254226852
S31510008E20137E01218B431376E368201C984738BDC7
S31510008E308023011038B5214B5C6823681D79EDB28B
S31510008E40EA0717D5A2691178C9B20132A261197061
S31510008E50E38B013B9BB2E383E38B9BB2002B09D1DF
S31510008E602268137A01218B4313722268117A102318
S31510008E700B431372EB0612D52123E35CDB070ED5E9
S31510008E802023E35CDB070AD500222223E254226862
S31510008E90137A10218B431372201C63689847AB0614
S31510008EA00AD52123E35C9B0706D52023E35C9B07A9
S31510008EB002D5A368201C984738BDC04680230110F0
S31510008EC0E1235B0203600023037143718371C37155
S31510008ED0023383600322C2600132026101324261B1
S31510008EE08361C361036243627047C046F8B54F465B
S31510008EF04646C0B4051C171C0160554B994218D143
S31510008F000920544CA0470A20A0470920524CA047DC
S31510008F100A20A047514B1D6010205149514CA047C3
S31510008F2011205149A047514B01221A6001321A6093
S31510008F301AE04F4B994217D10B20464CA0470C20F4
S31510008F40A0470B20444CA0470C20A047434B5D6024
S31510008F5012204849434CA04713204749A047434B8A
S31510008F6004221A6004321A60FB7904229046002B00
S31510008F7052D1023398464FE03078318AC8470134CF
S31510008F80E4B204364445F7D32B681A7DD20704D5CC
S31510008F9001211A7C1A7D0A42FBD100212022995404
S31510008FA0FB79591E8B4159017B793A7913430B434F
S31510008FB0BA79022A0DD0D1B2022902D8012A05D0D7
S31510008FC00FE0032A08D0042A09D00AE0022213432C
S31510008FD007E00622134304E00A22134301E00E229F
S31510008FE01343202229688B543E68244B9847041C4F
S31510008FF0311C234B984782B20004000C7043201A90
S315100090003109884206D900230133DBB2401A88425F
S31510009010FAD807E0002305E03E1C08360024194B59
S315100090209946A9E7002128202C68215401331B07F3
S315100090305B0FD20013439BB22A6893842B68197670
S315100090402B68197200200CBC90469946F8BDC04694
S315100090500040004021880010C584001080230110B4
S31510009060998C0010898C0010218D001000E100E011
S3151000907000500040AD8D0010358E0010B9840010E0
S315100090809DE70010DD82001002680120137903426B
S31510009090FCD011700020704702680120137D034236
S315100090A0FCD0137C0B7000207047C0461723002A93
S315100090B00DD00B33C35CDBB2052B08D08283416124
S315100090C005222223C2540368043A1A760023181C78
S315100090D07047C0469300C3185960012393401A1C69
S315100090E02021435C1A4342547047C0468B00C31874
S315100090F000225A6001238B40191C2032835C8B435B
S315100091008354704710B501238B402124025D13430D
S315100091100355012904D10268117A20230B431372D7
S3151000912010BDC04610B501228A402124035D934329
S315100091300355012904D10268137A1F318B43137228
S3151000914010BDC046F0B5474680B40C1C90460028AA
S3151000915010D1002A0ADD8F18094E0A4D3068211CDD
S315100091602B6898470134BC42F8D101E00023984699
S31510009170404601E00120404204BC9046F0BDC04686
S315100091809023011088230110F0B5474680B40138AA
S31510009190022815D8002A10D0151C0E1C00240C4BC2
S315100091A098460C4F43461868315D3B68984700282F
S315100091B009DB0134A542F5D100E00024201C04E0AF
S315100091C00120404201E00120404204BC9046F0BD1F
S315100091D0902301108C230110031C064A1268002AE2
S315100091E002D10549034A1160024A1068C318136078
S315100091F07047C046481C0110083F0110012040422C
S315100092007047C04680239B014B6000207047C046C4
S31510009210012070470020704738B5041C0088124B97
S315100092209847E22300281DD00422104B1A70A27909
S315100092300023002A16D1237A1B02E27913430C4A23
S3151000924093420ED10B4D63882B80A3886B800A48FE
S315100092500A4B98470A480B4B98470A232B7300234F
S3151000926000E0CF23181C38BD89AC0010581C011023
S3151000927014630000981B0110400D01108DFA0010A8
S31510009280440D01106DF9001030B583B0041C008830
S315100092902B4B9847E22200284FD0637A1B02227A82
S315100092A01343284A93420FD1A388274DAB802748F2
S315100092B0274B98476188A279AB88224800902548A9
S315100092C0254CA047002238E0244A93420FD1A388A8
S315100092D01D4DEB801D481E4B98476188A279EB887F
S315100092E01E4800901E481C4CA047002225E01D4A2F
S315100092F093420FD1A388144D2B811448144B9847D1
S315100093006188A2792B89174800901748124CA047FC
S31510009310002212E0002215498B420ED1A3880A4D75
S315100093206B810A480A4B98476188A2796B890F4866
S3151000933000900F48084CA0470022101C03B030BD07
S3151000934089AC001001420000981B0110400D01105D
S315100093508DFA0010640D01106DF900106E7000008A
S31510009360B80D0110A43A00000C0E0110CAE7000057
S31510009370600E011038B5041C00883F4B9847E22355
S31510009380002800D175E0E2780A2A02D00023002ACC
S315100093906FD13A4B1B7B0A2B13D12088374B198878
S315100093A05A88374B9847041E06D03648364B98478E
S315100093B03648211C364B9847E222304B1A7300234D
S315100093C057E0CF2B52D12F482F4B98473148304B6F
S315100093D09847E022294B1A732A482B4B98472E4858
S315100093E02B4B9847208813212C4B9847002340E09D
S315100093F02088224B998800220623294DA847002849
S3151000940005D02048204B98472648214B984720885E
S315100094101A4BD98800220623214DA847002805D0CB
S315100094201848194B98472048194B98472088134BD2
S315100094301989002206231A4DA847002805D011487D
S31510009440114B98471948124B984720880B4B59894E
S3151000945000220623124CA047031E0AD009480A4BC5
S31510009460984713480A4B9847002302E0E02BBFD1D8
S31510009470B2E7181C38BDC04689AC0010981B011005
S31510009480E1C70010400D01108DFA0010B40E011046
S315100094906DF90010E80E0110080F011031C7001009
S315100094A009C800102C0F01105C0F01108C0F011051
S315100094B0BC0F011070B5041C00884B4B9847E22373
S315100094C0002800D18EE04948494B984761884948A1
S315100094D0494B98476288494B9B8893421DD1434814
S315100094E0434B98472020464B9847444B1869211CFC
S315100094F008310622434B98470024404E404D3369AD
S31510009500185DA8470134062CF9D13848384B9847CE
S3151000951020203B4B9847002364E0384BDB8893426E
S315100095201DD13248324B98472020354B9847334B44
S315100095305869211C08310622324B984700242F4EB9
S315100095402F4D7369185DA8470134062CF9D12748A9
S31510009550274B984720202A4B9847002342E0274B59
S315100095601B8993421DD12148214B98472020244B1B
S315100095709847224B9869211C08310622214B98479F
S3151000958000241E4E1E4DB369185DA8470134062CE3
S31510009590F9D11648164B98472020194B98470023A7
S315100095A020E0164B5989002391421BD10F48104BCE
S315100095B098472020124B9847104BD869251C083520
S315100095C0291C06220F4B98470E340D4E2878B047AB
S315100095D00135A542FAD10548054B98472020084B7E
S315100095E098470023181C70BD89AC0010400D01105F
S315100095F08DFA0010EC0F01106DF90010981B011078
S31510009600A1F900104BF9001010B5094B094A1A615F
S31510009610094A5A61094A9A61094ADA610020002109
S31510009620084A094CA04700200121084AA04710BD4E
S31510009630981B0110C82301109C23011094230110BC
S31510009640A4230110F40C01100DA40010CC0C011071
S3151000965010B5134C8B005B18DB00591841180131FB
S31510009660201C07220F4B9847201C0F4B9847041EAF
S315100096700DD10E480E4B98470E480F4B98470122B6
S315100096800E4B1A700E4B1B681420984706E00748BD
S31510009690074B98470B48084B9847E224201C10BDEF
S315100096A0C02301104BF9001071A70010400D0110D6
S315100096B08DFA0010001001106DF90010581C0110E1
S315100096C05C1C011020100110F0B55F4656464D4641
S315100096D04446F0B48FB0634B1878C0B20023624A88
S315100096E0137009930A930B930C930D93002800D1D2
S315100096F080E05E4A00261178012903D8711C09AC56
S31510009700A355CEB20133DBB229328342F3D1002EF8
S3151000971000D189E004AB00221A7063329A704F3A76
S315100097205A70731EDBB2013399460025504B9B4687
S315100097304E4B9A46EBB298464E48D84709ABEB5C6F
S315100097409C00E418E400E4185444E279A3796179A2
S31510009750009121790191E1780291A178039146480F
S31510009760291C464FB847201C04A90322444B98478E
S31510009770002809D13C4A1378591C1170414A4146B8
S31510009780D15441483D4B984701354D45D2D153E010
S315100097903848374B98473D48384B98473C4B984785
S315100097A0002E25D03036F5B2314F3248B8473948F9
S315100097B0324B9847384B9847041CC6B22D48B847C9
S315100097C0FF202040354B9847B54201D92F2E02D89D
S315100097D0732EEAD101E0732E02D1314B984739E04E
S315100097E0303EF6B209AB995D20482E4B984731E0D2
S315100097F0E2202FE01F4D1E4F2B4E281CB847301C61
S315100098001E4B9847244B9847041C281CB847FF202A
S315100098102040224B9847E4B2732CEED1204B984748
S3151000982018E01B4B9847E3E70F4B1B78002BF8D13A
S3151000983007E0174B9847B5E70B4B1B78002BF8D171
S31510009840A6E70C480A4B984710480C4B9847104B04
S315100098509847CDE70FB03CBC90469946A246AB461A
S31510009860F0BDC04648210110601C0110BC26011035
S315100098708DFA0010400D0110481001106DF90010FE
S31510009880FDA70010AC2301108810011098100110CC
S3151000989039C60010C01001106DB00010A1F90010EB
S315100098A0B9A7001051960010F0100110F8B5264B0C
S315100098B01B68002B0AD09847012807D12348244B50
S315100098C098472448244B9847E2243AE0234B1B68D8
S315100098D098471E4D1E4E281CB04721481E4B9847D0
S315100098E0204B9847041CC7B2281CB047FF202040C5
S315100098F01D4B98473B1C723B012BECD8722F1AD18B
S315100099001A481B4B9847041E0DD11048104B984708
S315100099101848114B98470122174B1A70174B1B68A2
S31510009920142098470DE00948094B984714480A4BEC
S315100099309847E22405E0E224732F02D1114B984791
S31510009940041C201CF8BDC0464C1C0110400D011013
S315100099508DFA00100C1101106DF90010541C011035
S31510009960441101106DB00010A1F90010C0230110B0
S3151000997071A7001068110110581C01105C1C011011
S3151000998084110110B9A7001010B5041C00881A4BD9
S315100099909847002803D1194B9847E2202BE0184B23
S315100099A01B68002B02D09847164B1870154B1B7866
S315100099B0012B14D020880121134B9847002807D07B
S315100099C020880021104B9847031CE220002B12D14F
S315100099D0A3789C2B0ED0094B9847E2200BE000226F
S315100099E00A4B1A700A480B4B98470B480B4B984773
S315100099F0E22000E0002010BDF5AC0010AD9800107C
S31510009A004C1C0110501C011021AD0010581C0110E7
S31510009A10400D01108DFA0010A81101106DF90010FB
S31510009A2010B50121064A074B9847041E05D0064873
S31510009A30064B98470648074B9847201C10BDC04652
S31510009A40FFFF0000B9C70010400D01108DFA00107D
S31510009A50E01101106DF9001010B5041C40880A4B76
S31510009A609847E22300280DD0084B1B6898472279A7
S31510009A70E223002A06D16088054B98470322054B3E
S31510009A801A70031C181C10BD89AC0010541C011050
S31510009A90219A0010581C011010B5041C0088094B9F
S31510009AA09847E22300280AD0074B1B689847A278EC
S31510009AB0E223002A03D12088044B9847031C181C64
S31510009AC010BDC04689AC0010541C0110219A00101C
S31510009AD010B5041C0089074B9847E223002806D0CE
S31510009AE00222054B1A702089044B9847031C181C38
S31510009AF010BDC04689AC0010581C0110219A0010E8
S31510009B00014B18607047C0465C1C0110014B186071
S31510009B107047C046541C0110002070470020704743
S31510009B20C078002800D0E2207047C0460020704759
S31510009B3008B50078002806D00348044B9847044817
S31510009B40044B9847E22008BD400D01108DFA001015
S31510009B50701301106DF9001010B5031CC0780028A1
S31510009B6009D01C1C0448054B98472188A278044844
S31510009B70044B9847E22010BD400D01108DFA0010DD
S31510009B80841301106DF90010F8B5041C194B9B22B3
S31510009B9092009D1801270026181C1A1C563A118887
S31510009BA02288914219D11A78052A01D0082A01D1A2
S31510009BB0077012E0072A0FD892000F498A58974665
S31510009BC01E700E4A1278002A07D00C4A1278013AF3
S31510009BD0D2B20A490A7000E006707C33AB42DBD180
S31510009BE00748084B9847A17822880748074B98479B
S31510009BF00020F8BD46240110001201105426011051
S31510009C00400D01108DFA0010BC1301106DF90010F3
S31510009C1070B5061C0188264B00241A898A4204D185
S31510009C201A1C5E321278062A2AD00134E4B27C332A
S31510009C30052CF2D135E01E4963011A1B92008A18D1
S31510009C401576131C583307229A711A481A4B9847DF
S31510009C501A481B4B9847E22527E01648164B98479B
S31510009C601848174B98477C235C43114B1B191A1C39
S31510009C70583208219171F2781A75B2781A7614E072
S31510009C80B578002DD7D1E8E70A4E301C0A4DA84703
S31510009C900C480B4CA047301CA8470B48A047E225A0
S31510009CA003E0B578002DC6D1EEE7281C70BDC0467E
S31510009CB0E8230110400D01108DFA0010EC1301106D
S31510009CC06DF90010001401102414011010B5011CB8
S31510009CD0154B1B78DBB2132B12D8134C2378DBB23F
S31510009CE09800C018C000C3181048C0182922104B7D
S31510009CF09847237823780133DBB22370002012E0D3
S31510009D000C480D4B98470D480D4B98470D4B9847EF
S31510009D10031CE220002B06D00648074B98470A483A
S31510009D20074B9847E22010BD48210110BC260110B0
S31510009D304BF90010400D01108DFA00104C14011053
S31510009D406DF9001039C6001084140110F8B54F468D
S31510009D504646C0B4051C4188384B00241A898A42ED
S31510009D6004D11A1C5E321278032A5ED00134E4B292
S31510009D707C33052CF2D12BE063011C1BA4002F4B66
S31510009D801C195834A379012B13D92D482D4B9847FC
S31510009D902D482E4B9847688813212D4B9847061E41
S31510009DA047D02748274B98472A48284B9847E226FA
S31510009DB03FE000263DE0224E301C224DA8472648A3
S31510009DC0224CA047301CA8472448A047E22630E082
S31510009DD02B79002BD0D1EEE719481A4B98471E481D
S31510009DE01A4B98472A78154B99467C235C434B4669
S31510009DF01F193B1C3A752A793A76103348330522D7
S31510009E009A71381C3630291C22310B32144B984665
S31510009E109847381C4630291C32311722C047381C47
S31510009E201A30A91D1C22C04703E02E79002EA3D19B
S31510009E30D2E7301C0CBC90469946F8BDE8230110B9
S31510009E40400D01108DFA00109C1401106DF90010D0
S31510009E5031C70010BC140110D814011004150110DC
S31510009E604BF9001010B50088012101227823024C0D
S31510009E70A047002010BDC04651C70010F0B5574688
S31510009E804E464546E0B484B0041C01AA0023019353
S31510009E900293137206886B490A1CDDB21F1C1089C7
S31510009EA0B04214D1101C5E30007802280FD1654ADA
S31510009EB05B01DB1B9B00D3185833043098716B0180
S31510009EC05B1B9B00D3181A7DD30705D41BE0013307
S31510009ED07C32052BE1D11EE0E378002B13D02088CD
S31510009EE06901491B8D00574949191A31564B984734
S31510009EF0002800D1A0E05548554B98475548564B79
S31510009F009847E22098E06B015D1BAD004D4B5D1943
S31510009F1058350223AB7125880022D3B2161C088946
S31510009F20A8420DD1081C5E300078022808D15201D3
S31510009F30921B9600434A921958320321917105E0FB
S31510009F400133DBB201327C31052AE6D101AA0221A6
S31510009F501172E178917001215170033111701F1C3B
S31510009F605A01D21A92003749525C022A04D101AA28
S31510009F7003219171D17144E001AA01219171D1712E
S31510009F803FE0C847434618403070C847434618401C
S31510009F90B0740136AE42F4D153467033294A9E1836
S31510009FA02E4B99460F239846C847434618402870AB
S31510009FB00135B542F8D1294B98477B01DB1B9B0035
S31510009FC0204AD3181A1C70321080783310229A70D7
S31510009FD020887A01D71BBF0060371A4ABA1801A920
S31510009FE000231F4CA047002826D001AB00229A70F0
S31510009FF05A701648164B98471A48174B9847E2203E
S3151000A0001AE001AA1021517111717A01D21B920026
S3151000A0100C498A18127E402ADAD15A01D31A9B00AB
S3151000A0209A461E1C60367618554668356D180B4BC9
S3151000A03099460F239846A4E704B01CBC904699464F
S3151000A040A246F0BDE823011019CD0010400D0110F5
S3151000A0508DFA0010341501106DF90010A1FA0010D8
S3151000A0602DCB00104C150110F0B557464E464546FF
S3151000A070E0B484B08046048849490022D3B2151C46
S3151000A0800889A0420DD1081C5E300078022808D13C
S3151000A0905201521B9500424A5219583203219171AE
S3151000A0A005E00133DBB201327C31052AE6D101AA83
S3151000A0B00221117201399170517000211170D17005
S3151000A0C01F1C5A01D21A92003549525C022A04D139
S3151000A0D001AA03219171D17141E001AA0121917167
S3151000A0E0D1713CE0C84730402870C8473040A8744A
S3151000A0F00135A542F6D153467033294A9D18294B8E
S3151000A10099460F26C847304020700134AC42F9D129
S3151000A110244B98477B01DB1B9B00214AD3181A1C42
S3151000A12070321080783310229A70434618887A015C
S3151000A130D71BBF0060371A4ABA1801A900231A4C58
S3151000A140A047002825D001AB00229A705A701748F4
S3151000A150174B98471748184B9847E22019E001AA61
S3151000A1601021517111717A01D21B92000C498A1873
S3151000A170127E402AD9D15A01D31A9B009A461D1C29
S3151000A18060356D18544668346418064B99460F2688
S3151000A190A8E704B01CBC90469946A246F0BDC0463E
S3151000A1A0E8230110A1FA00102DCB0010400D01106C
S3151000A1B08DFA0010781501106DF90010F0B54746AC
S3151000A1C080B484B0051C02A843490622434EB0470A
S3151000A1D001AC201C291C0422B047E378002B67D160
S3151000A1E03F48404B98474048404B98470026404CC4
S3151000A1F0FF239846F7B21E20A047C3B2002B1AD1F0
S3151000A200374F381C374EB0473A48384CA047381CA1
S3151000A210B0473948A04728881321384B9847031C64
S3151000A220E220002B53D02E482E4B984734482F4B04
S3151000A2309847E2204BE01A1C303A092A09D802AA9C
S3151000A240B354434618402F4B98470136062E28D054
S3151000A250D0E7052FCFD924E02148224B98472A482A
S3151000A260224B98472BE002ABE05CB0470134062C3A
S3151000A270F9D1288801AB997802AA244B984700286F
S3151000A28025D01748174B98472148184B9847002058
S3151000A2901DE01348134B98471E48144B984700204F
S3151000A2A015E00F480F4B98471B48104B984706E090
S3151000A2B001AB5A8880235B009A4203D1CCE7002475
S3151000A2C0104ED0E701AB9B78012BE2D0002004B0F2
S3151000A2D004BC9046F0BDC0462C1301104BF900107B
S3151000A2E0400D01108DFA0010A01501106DF9001027
S3151000A2F0DDAF0010C8150110D415011031C70010BC
S3151000A300BC140110A1F90010E81501105DCC001065
S3151000A310201601103816011054160110F8B5061C37
S3151000A3200188304B0024E5B21A898A4216D11A1CCC
S3151000A3305E321278012A11D92A496201121B920043
S3151000A3408A185832062393716B015B1B9B00CB183E
S3151000A35070331A8873889A4213D106E00135EDB22C
S3151000A36001347C33052CDED10BE0301D6901491B0D
S3151000A37089001C4B5918723108221B4B984700282C
S3151000A38015D01A4F381C1A4EB0471A481A4CA04707
S3151000A390381CB0471948A0476B015D1BAD00114B27
S3151000A3A05D1928890521164B9847E22018E0FF23EE
S3151000A3B01C4030880B4B6201111B89005918097D0E
S3151000A3C0141BA4006034E31801220E4CA047002889
S3151000A3D006D00648064B98470B48074B984700206F
S3151000A3E0F8BDC046E82301102DF90010400D0110EC
S3151000A3F08DFA0010681601106DF90010A0160110E4
S3151000A40031C7001091CD0010F816011030B5002A92
S3151000A41047D0062947D88900284B5B589F46284BBA
S3151000A42005240AE0274B012407E0274B052404E006
S3151000A430264B012401E0264B0524002816D1196865
S3151000A44000290BD106E01D1C0433181F00680028D4
S3151000A45006D100E01D1C2A6001212CE004330021E6
S3151000A4600131C9B2A142EED3002124E00021012816
S3151000A47021D1196891420CD106E01D1C0433181F16
S3151000A4800068904207D100E01D1C00232B600121BB
S3151000A49011E0043300210131C9B2A142EDD30021EC
S3151000A4A009E0002107E0002105E00A4B0524C4E776
S3151000A4B0094B0124C1E7081C30BDC046201201100B
S3151000A4C0D4230110D023011058260110FC2B0110A3
S3151000A4D06C26011080260110B8260110F0B54746EB
S3151000A4E080B490B0051C0024764B1C60764B1C6023
S3151000A4F000279C809F71754B1C805C809C80DC8043
S3151000A5001C815C819C81DC811C8271480021714A0E
S3151000A510714EB047714B1F7071480021CD229200C9
S3151000A520B047704B1F707048002183229200B047CD
S3151000A5306E4B1C605C609C606D4B1C605C609C602C
S3151000A540DC601C616B4B1C605C609C60DC601C6199
S3151000A550694B1C605C609C60DC601C61674B1C6016
S3151000A560674B1C60674B1C605C609C60DC601C6108
S3151000A570654B1C60654C9B239B009846A044564F28
S3151000A5804026201C00217C22B847231C5E33002263
S3151000A5901A7026767C344445F3D15D4B1A70534CB1
S3151000A5A04C4B63604A4B23605A485B4B98475B4859
S3151000A5B05B4B9847201C5B4B984700280BD0554E99
S3151000A5C0301C554DA8475848554CA047301CA84735
S3151000A5D05648A047FEE700200021554A554CA04793
S3151000A5E000200221544AA04754480921544B984749
S3151000A5F0002805D04748484B98475248484B98473B
S3151000A60004A8514908310722504B984706AA00233F
S3151000A61006930793089309930A930B930C930D9340
S3151000A6200E939384002D0CD104A8494B984704AD82
S3151000A630002806D03748384B98474648384B984735
S3151000A64004AD3448344B9847A9796A792B79E87860
S3151000A6500090A878019068780290287803903E4878
S3151000A6602F4CA04706AC0F2323703C4B638007A8E2
S3151000A670291C0722354B98470023E3762377637707
S3151000A680A377E3772384638480239B00A384201C11
S3151000A690334B9847002805D01E481F4B9847314822
S3151000A6A01F4B9847281C304B9847002805D019484F
S3151000A6B0194B98472D481A4B984710B004BC904632
S3151000A6C0F0BDC046442101104C2101109426011002
S3151000A6D0641C0110E20400005DF90010482101100D
S3151000A6E0BC260110B4260110F0290110A82601106D
S3151000A6F06C26011080260110D4230110B8260110F3
S3151000A700D023011058260110FC2B0110E82301104C
S3151000A71054260110400D01108DFA00101817011063
S3151000A7206DF90010BDC300102C1701104C17011045
S3151000A730841901100DA40010481301108817011078
S3151000A740D5C20010941701102C1301104BF90010EC
S3151000A75009C30010AC170110C4170110983A000075
S3151000A7602DC30010FC17011055C50010201801103C
S3151000A77010B586B0041C0D48211C07220C4B9847B7
S3151000A78003AB14221A8014325A8000229A801A813E
S3151000A7905A81F532FF32DA800093201C0121953A56
S3151000A7A0FF3A6023034CA04706B010BD4C210110A0
S3151000A7B04BF9001059C6001010B584B009480A4B61
S3151000A7C098470A480A4B984700230A4A1370009381
S3151000A7D0019301330293602060210022064CA047AA
S3151000A7E004B010BD400D01108DFA00104018011074
S3151000A7F06DF9001048210110A9C50010F0B55F468B
S3151000A80056464D464446F0B487B02723C65CBB3344
S3151000A810002E65D0924601918046002204AB1A7034
S3151000A820002501235B4299460B1C01330093304BE4
S3151000A8309B4643465A19117A04AB1970527A5A70CC
S3151000A8402A1C0A32424405925B78DBB2534536D154
S3151000A85004AB1C78013CE4B2002C30D0019B1F786D
S3151000A8604B460393002F0AD1059800990222D84728
S3151000A8700390059B02330593023CE4B21AE0012FC4
S3151000A8800BD1059800990422194B98470390059B04
S3151000A89004330593043CE4B20CE0022F0AD1059868
S3151000A8A000991022124B98470390059B103305937D
S3151000A8B0043CE4B2039B002B11D0002CD0D104AA87
S3151000A8C013780133ED18EDB213780133DBB2137040
S3151000A8D01378F61AF6B2002EABD1E22300E000236D
S3151000A8E0181C07B03CBC90469946A246AB46F0BD34
S3151000A8F02DF9001008B501210122064B98470028B2
S3151000A90006D00548054B98470548064B9847E22060
S3151000A91008BDC046D9CC0010400D01108DFA0010AC
S3151000A9205C1801106DF90010F0B54F464646C0B4DC
S3151000A9309BB0051C867A002E00D0C8E07448754F6F
S3151000A940B847A9796A792B79E8780090A8780190A8
S3151000A950687802907048714CA0476D48B8472989AD
S3151000A9606F48A0476F48291C12226F4B98470495D1
S3151000A9706E48291C07226E4B9847002800D1AFE07D
S3151000A9802B78022B00D0ABE006A800215022694B91
S3151000A9909847694F00230BE0591C147806A8C45435
S3151000A9A001328BB2B342F7D17C37331E502B04D011
S3151000A9B01E1C1036B6B23A1CEEE70520291C06AA54
S3151000A9C05E4B9847061E00D19CE05148514B984764
S3151000A9D05B48524B9847E22694E0E3B298460594BA
S3151000A9E0381C04990722C847002809D1059A530133
S3151000A9F09B1A9F00534BDB19583302229A712DE094
S3151000AA0001347C37052CE8D174E0D9B288461C1C79
S3151000AA10117800291AD102E0002400239846630118
S3151000AA209946181B8000474FC019291C12223E4B0D
S3151000AA309847454A13780133DBB213704B461B1BFC
S3151000AA409B00FB18583302229A7107E041460131E8
S3151000AA50C9B2884601337C32052BD6D13348291C1E
S3151000AA600722334B984700280ED143465B014246D6
S3151000AA709B1A9B00334AD31805229A742B4B00223B
S3151000AA801A609A809A713DE043465B0142469B1AD2
S3151000AA909B002C4AD3180A229A74244B0021196061
S3151000AAA0998099710A2A2DD10DE01948194B9847AA
S3151000AAB0254B1978C9B22548184B98472889132170
S3151000AAC0234B98471EE02889224B98471AE01048D6
S3151000AAD0104B9847A97A2048104B9847002611E04A
S3151000AAE0194B1B78DBB2042BDFD8164F0024104B02
S3151000AAF0994672E75E23134AD35C002B8CD0174A13
S3151000AB00012382E7301C1BB00CBC90469946F0BD61
S3151000AB10400D01108DFA00107C1801106DF900100F
S3151000AB20C0180110942601104BF900104C21011089
S3151000AB302DF900105DF900102E2401105DC70010CC
S3151000AB40D8180110E823011054260110FC18011022
S3151000AB5031C70010F5A8001038190110C2240110D1
S3151000AB60F0B5474680B40378002B3AD12F4D002418
S3151000AB70461C2F4F301C291C1022B847002838D0ED
S3151000AB800134E4B27C35052CF4D12AE0DCB21D1C6C
S3151000AB90117800291BD101E000250024254B984689
S3151000ABA06E01771BBF004744381C23491222234BE2
S3151000ABB09847234A13780133DBB2137058370223B0
S3151000ABC0BB71751BAD0045440833AB7421E00133EE
S3151000ABD07C32052BDAD124E0174B1889194B98478C
S3151000ABE01FE05E23134AD35C002BD5D0164A0123EF
S3151000ABF0CCE7104963011A1B92008A18101C5830B2
S3151000AC00022585710A209074101C0B4912220B4BD9
S3151000AC10984763011C1BA400064B1C19A37C0A2B26
S3151000AC20DAD0002004BC9046F0BDC0462E24011098
S3151000AC302DF90010E8230110942601104BF900108D
S3151000AC4054260110F5A80010C224011030B50D4A83
S3151000AC5000231D1C141C5E342478012C0BD9148976
S3151000AC60844208D15B015D1BAD00064B5B199B7CD2
S3151000AC700B70002004E001337C32052BE9D1E22071
S3151000AC8030BDC046E823011000B583B06B46D91D10
S3151000AC9000230B70074B98470023002806D16B46FC
S3151000ACA007331B78053B58424341DBB2181C03B0EF
S3151000ACB000BDC0464DAC001030B50D4A00231D1C1A
S3151000ACC0141C5E342478012C0BD81489844208D1C4
S3151000ACD05B015D1BAD00064B5B199B7C0B70002066
S3151000ACE004E001337C32052BE9D1E22030BDC046A9
S3151000ACF0E823011000B583B06B46D91D074B984762
S3151000AD000023002806D16B4607331B78053B5842B3
S3151000AD104341DBB2181C03B000BDC046B9AC0010ED
S3151000AD2010B5094B9B2292009C181A1C5E321278A1
S3151000AD308A4202D11A89824204D07C33A342F4D1CA
S3151000AD40E22000E0002010BDE8230110F8B50D1C2C
S3151000AD503B2872D883003C4AD3589F46840000266D
S3151000AD603A4FBB59002B04D01B59002B01D0281C7D
S3151000AD7098470436142EF4D165E01338C4B2A400F3
S3151000AD800026334FBB59002B04D01B59002B01D082
S3151000AD90281C98470436142EF4D154E01D38C4B23A
S3151000ADA0A40000262B4FBB59002B04D01B59002B97
S3151000ADB001D0281C98470436142EF4D143E02738C6
S3151000ADC0C0B2254B1B68002B3DD08000C358002B0A
S3151000ADD039D0081C984736E02D38C0B21F4B1B6877
S3151000ADE0002B30D08000C358002B2CD0081C98475D
S3151000ADF029E03638C4B2A4000026194FBB59002BDF
S3151000AE0004D01B59002B01D0281C98470436142E49
S3151000AE10F4D118E03838C0B2124B1B68002B12D090
S3151000AE208000C358002B0ED0081C98470BE00E4B21
S3151000AE301B68002B07D0984705E00C4D281C0C4CBE
S3151000AE40A047281CA047F8BD3C1201106C26011023
S3151000AE5080260110D4230110B8260110D02301102A
S3151000AE6058260110FC2B011044210110400D011031
S3151000AE708DFA001010B5021C06480749074B984773
S3151000AE80041E04D1034B18780349054B9847201C20
S3151000AE9010BDC046B4260110F029011015BC0010D3
S3151000AEA04DAD00100122014B1A707047532101104D
S3151000AEB070B5061C0D1C034C301C291CA04700281D
S3151000AEC0FAD170BD9990001070B5061C0D1C034C7C
S3151000AED0301C291CA0470028FAD170BD899000109B
S3151000AEE038B500200021164B9847164C201C164BDF
S3151000AEF09847E1235B0223600223A3600322E260EA
S3151000AF000132226101326261A361E36123626362ED
S3151000AF100E480F4B18600F4A0F4B1A600F4A104B12
S3151000AF201A601049221C104B9847104D2B689868D0
S3151000AF3000210F4CA0472B6858680021A04738BD48
S3151000AF4035840010242C0110C18E0010002C011025
S3151000AF5090230110C9AE00108C230110B1AE001061
S3151000AF608823011000400040ED8E0010201C0110B7
S3151000AF7019FB0010F0B583B0051C0D4CA047A04777
S3151000AF800C4FB8470C4E0D4A0D4BB047009001912F
S3151000AF90FA2080006843B847021C0B1C00980199E0
S3151000AFA0B047084B9847084B186003B0F0BDC04631
S3151000AFB0B984001091F50010FDE80010C7AEFE1917
S3151000AFC0EFD8093FC1E8001054210110024B1A684E
S3151000AFD0501E18607047C0465421011038B5002421
S3151000AFE0164B1C70164B9847164D2C70164C201C81
S3151000AFF016490222164B9847201C0221154B9847DA
S3151000B000201C291C0122144B98470C4C134D2378F5
S3151000B010002B02D1A8470028F9D1114B1B68002B31
S3151000B02008D1094C201C02210E4B9847201C0221E6
S3151000B0300D4B9847034B187838BDC0465321011065
S3151000B04075AF001058210110002C0110A5AE00108C
S3151000B050D590001005910010AD900010CDAF0010E6
S3151000B06054210110ED9000102591001038B50023E1
S3151000B0700C4A13700C4D2B700C4C201C0C490222E0
S3151000B0800C4B9847201C02210B4B9847201C291C5F
S3151000B09001220A4B9847034A1378002BFCD0024B27
S3151000B0A0187838BD5321011058210110002C0110B9
S3151000B0B0A5AE0010D590001005910010AD900010AF
S3151000B0C008B50248024B984708BDC046D019011072
S3151000B0D08DFA001000B589B001A8054B9847054BAD
S3151000B0E00393054B069301A8044B984709B000BD7E
S3151000B0F02D81001080BA8C0100751903C1810010D2
S3151000B10010B5011C0020074CA04701200649A04796
S3151000B1100020064CA0470120A0478022D201044BF4
S3151000B1201A6010BDC5820010C1B000109D810010BC
S3151000B13000E100E008B5002800D10130054B43437B
S3151000B1401A1C00200021044B98470020034B9847F7
S3151000B15008BDC04680BA8C0151810010798100105B
S3151000B16008B50020014B984708BDC0469D810010C8
S3151000B170024B1A68026018607047C04660210110C1
S3151000B18030B50B4B1C68002C11D025681D600023B0
S3151000B1902360A160E280A080064B1A68002A02D1C3
S3151000B1A01C6004E01A1C1368002BFBD1146030BD20
S3151000B1B0602101105C21011070B50023064A13604E
S3151000B1C0064A1360064C261C7836064D201CA847E6
S3151000B1D00C34B442FAD170BD602101105C2101100B
S3151000B1E06421011071B1001010B5114B1C68114B80
S3151000B1F01B689847E30714D40F4B1B680220984727
S3151000B2000E4B1B6898470E4C03202368984700285E
S3151000B210FAD10C4B1B680230984701220A4B1A6070
S3151000B22004E00A4B18680A4B1B68984710BDC046C5
S3151000B230ECB1004010220110082201101822011052
S3151000B240F0210110F821011020B00040FC2101105E
S3151000B250E821011008B5064B064A196811605A68AC
S3151000B260054B1A60054B1B68002B00D0984708BD8C
S3151000B2704C2C01100CB0004010B00040202F0110D3
S3151000B28038B51048002132220F4B984700210D483F
S3151000B290012502244A001154821853782B43DBB23D
S3151000B2A0A343537001311929F4D1064B5A78183932
S3151000B2B08A435A70DA788A43DA705A7F8A435A7701
S3151000B2C038BDC046642C01105DF90010064A11689D
S3151000B2D0064B0B401360064A136006490868064B76
S3151000B2E003400B60536070470CB00040D30FFEFF55
S3151000B2F04C2C011010B00040C0E7FFFFF8B54F46C8
S3151000B3004646C0B4444B1B78002B03D0424B1B78E7
S3151000B310012B79D0414B9847414B98470027414B19
S3151000B3201F60414C8023802212049146E2508022F5
S3151000B33052049046E2503D4D3D4B2B603D4B3E4AEC
S3151000B34013603E493E4A11603E4A11683E4A1160FA
S3151000B3503E4A11683E4A11603E493F4A11603F49D4
S3151000B3603F4A11603F4E404A32604049404A1160A0
S3151000B3704049414A11604149414A11604149424A96
S3151000B38011604249424A11604249434A11602820DD
S3151000B3909847282041492B6898472B682720404911
S3151000B3A09847404B1A68404B1A60404A404B1A6007
S3151000B3B0404A414B1A60414A414B1A60414A424B3E
S3151000B3C01A60424A424B1A60424A434B1A60434A39
S3151000B3D0434B1A6043480021A0229200424B9847E3
S3151000B3E080229200414B1A80414B98474B4623606E
S3151000B3F0434623603F4B1F6033683F4A1A60012261
S3151000B400054B1A70002003E00122034B1A7001202D
S3151000B4100CBC90469946F8BDF421011081B200107B
S3151000B420CDB200101422011000E100E0182F011017
S3151000B430D7070000BD070000582C011051BC0100B1
S3151000B4401C2F0110BC000410E4210110B8000410D8
S3151000B450E02101109FB90100542C0110DBB9010045
S3151000B4605C2C0110282F01103C000410C01F041082
S3151000B470602C0110C41F0410242F0110E9CB010009
S3151000B480082201108FCD0100F8210110A3CE010072
S3151000B49018220110CFCB0100F021011071B9001054
S3151000B4A005B90010E400041010220110E99F0100F4
S3151000B4B01C220110DDDB0100E82101105BDC01001C
S3151000B4C000220110EC050410FC210110E3D5010047
S3151000B4D00C220110200C041020220110099F0100DB
S3151000B4E0DC210110982C01105DF900102C2F011091
S3151000B4F0B9B10010202F011055B20010044B1A7864
S3151000B5000523012A02D1034B18600023181C70472B
S3151000B510F42101101422011038B5041C40880E4B7A
S3151000B5201B68002B01D09847608020886188A2880C
S3151000B530E3880A4D2D68A847051CE288002A02D127
S3151000B540074B984706E0211C0831064B9847281CE4
S3151000B550034B984738BDC046E42101101C22011048
S3151000B560E9B100104BF90010F8B5041C0F1C161C9D
S3151000B5701D1C0E4B18680E4B1B6898473A02224347
S3151000B5800C4B1C68A020C00005212B1CA047041ED4
S3151000B5900AD0002D05D0002E03D0311C2A1C064BD4
S3151000B5A09847201C054B9847F8BDC046FC21011052
S3151000B5B0E82101101C2201104BF90010E9B100100E
S3151000B5C0F0B55F4656464D464446F0B487B001384E
S3151000B5D000239946C31C1AD80023029303931933E8
S3151000B5E002AA1370163B5370937002331371937142
S3151000B5F01072030A5372030C9372000ED072012359
S3151000B6001373101C0D21794B98470123994600247A
S3151000B61000239B46764F774E306877493B689847AC
S3151000B620002800D08AE0744B1C68A58823899A46A6
S3151000B63063899846CD239B009D4200D1C7E04B46B7
S3151000B640002B11D0002302930393049302AA1373C1
S3151000B65019331370163B5370937002331371937131
S3151000B660101C0D21614B9847A023DB009D4222D16F
S3151000B670624B1B884344A0229200934202DD803A1B
S3151000B6805E4B1A805D4B9B461D885D4BED18211C49
S3151000B6900C31281C42465B4B98475046291C4246A3
S3151000B6A0594B98475B461B8843445A4613800024DF
S3151000B6B002239B463CE0554B1B68002B33D04E4B68
S3151000B6C01A689388CD2189008B4204D14B460124F8
S3151000B6D0002B2DD029E04E4C494D25602B701B0AAE
S3151000B6E06B7010894B4B1B6898472871000A68715C
S3151000B6F02068414B1A68D28842801D686B89C380C6
S3151000B700083020606A89002A03D0291C0C313D4B71
S3151000B7109847698908313D4B1B683948984700247A
S3151000B72003239B4604E0002402E00024D0239B461A
S3151000B730314B1868384B1B68984701E007239B4626
S3151000B740002C00D068E74B46002B46D0294B1D68CD
S3151000B750002D04D100231C6A002C31D13DE02C6A47
S3151000B76014239C46AC446346604600932B4B1B68DF
S3151000B7709847002C1FD00026CD27BF00264B994690
S3151000B78023689B88BB4212D1002E07D0A368B360F2
S3151000B790201C4B461B689847B4680AE0A3682B62C6
S3151000B7A0201C1D4B1B68019398472C6A01E0261C30
S3151000B7B0A468002CE4D11A4B1B68009898470CE03B
S3151000B7C014230093154B1B6814209847D3E70F4B8F
S3151000B7D01B680024002BABD078E7584607B03CBC5A
S3151000B7E090469946A246AB46F0BDC04619B5001024
S3151000B7F00C22011020220110042201102C2F0110FE
S3151000B800982C01104BF9001081B100101422011070
S3151000B810EC210110E0210110DC21011000220110A1
S3151000B820E821011010B5124B1C68124B1B688020C2
S3151000B83000029847E30714D40F4B1B680220984761
S3151000B8400E4B1B6898470E4C032023689847002818
S3151000B850FAD10C4B1B680230984701220A4B1A602A
S3151000B86004E00A4B18680A4B1B689847082010BD5D
S3151000B870ECB10040542C01100822011018220110BE
S3151000B880F0210110F821011020B00040FC21011018
S3151000B890E821011030B5184A138F9BB2108D802104
S3151000B8A0090201431185101C144D01240022DB05E9
S3151000B8B0DB0D11D0DBB259420B40012B06D0111C07
S3151000B8C05B080131C9B2012BFAD100E0111C231C0F
S3151000B8D08B4099B2018703E0038F2B439BB20387FA
S3151000B8E0038FDB05DB0DE2D1802149008133FF3365
S3151000B8F0034AD15030BDC046001001400080FFFF02
S3151000B90000E100E030B5174A138F9BB2108D8021ED
S3151000B910090201431185101C134D01240022DB0579
S3151000B920DB0D11D0DBB259420B40012B06D0111C96
S3151000B9305B080131C9B2012BFAD100E0111C231C9E
S3151000B9408B4099B2018703E0038F2B439BB2038789
S3151000B950038FDB05DB0DE2D180218133FF33034AF0
S3151000B960D15030BD000001400080FFFF00E100E033
S3151000B97008B50C4B1B8F5B0B10D00B4B1B689847F5
S3151000B980084A138F118F5B0B5B030B4313878021C0
S3151000B9904900C0235B00054AD15001E0044B98478B
S3151000B9A008BDC046001001401C2F011000E100E048
S3151000B9B095B8001010B5094B98470122084B1A701C
S3151000B9C0084B1B78002B01D1064B1A704120012120
S3151000B9D000220023044CA04710BDC04661B10010E0
S3151000B9E0252201102422011069B50010F0B583B08C
S3151000B9F02E4B98472E4B98472E4B98472E4B9847D1
S3151000BA002E482F4B984700202E4B984700202E4B40
S3151000BA1098472E482E4B98472E482F4B98472F4B1A
S3151000BA209847CF2806D12948294B98472C482A4BA6
S3151000BA30984707E0E22805D12448254B984729481E
S3151000BA40254B98472848294B98472948294B98470A
S3151000BA50294E2A4D2A4F01246442201CB0472B78C8
S3151000BA60002BFAD03B78012B1CD101AB13229A7014
S3151000BA70244A12891A800022214B1A70224B9847A9
S3151000BA80002809D11148124B98472048124B984765
S3151000BA9001A81F4B984705E00C480D4B98471D48C9
S3151000BAA00D4B98470022154B1A70D4E7FDB20010C3
S3151000BAB025B80010E1AE0010D5B00010B5B90010D1
S3151000BAC001B10010DDA4001009960010400D011000
S3151000BAD08DFA0010E41901106DF90010B9A70010C5
S3151000BAE0101A01102C1A011035B10010019B00100C
S3151000BAF061B100100D9B001075AE001025220110CB
S3151000BB00581C0110E823011085C700104C1A0110AB
S3151000BB1089990010601A011070B50C4D2C68002C14
S3151000BB2013D02668E2602E600025094A2381136827
S3151000BB302560A080E180AB4201D1146005E01A684F
S3151000BB40002A01D0131CFAE71C6070BDCC2201102C
S3151000BB50C8220110084B0022191C10B51868074B93
S3151000BB609C18D0501032201CA02AF8D100229033F5
S3151000BB700B60034B1A6010BDCC2201102822011055
S3151000BB80C822011038B51B4C031C2588081C211C23
S3151000BB909D4207D1A588854204D101235B422380AB
S3151000BBA0A26009E04C889C420AD18C88844207D155
S3151000BBB001235B424B808A600F4B9847012017E0A8
S3151000BBC00E498B420ED00E498B4207D00D490020EC
S3151000BBD08B420DD1101C0C4B9847EFE7111C0B4BE9
S3151000BBE0002202E0111C0022094B9847434258419B
S3151000BBF038BDC046302F01109DCE0010130E000028
S3151000BC00150E0000010E00000DD20010CDD300104D
S3151000BC10A5D400100023F0B585B002920370029BE4
S3151000BC200190013B0D1C0393033302D80298AD4BD0
S3151000BC309847039BAC4F0024033312D83B68002B64
S3151000BC4012D1D02C00D19CE20298A84B9847041E22
S3151000BC50022CF3D125E00298A44B9847041E022C1F
S3151000BC601FD03B68002BF6D0D02C00D189E2E31E02
S3151000BC705A1E934138685B421C40002800D186E268
S3151000BC800368C1683B609A4FC2883E688388066025
S3151000BC903860002C12D19748834208D096488342C8
S3151000BCA01DD13A230024019A251C137006E09A42EE
S3151000BCB000D068E23823019A13702960019B1B7823
S3151000BCC03B2B03D0039B033303D964E2002CB0D083
S3151000BCD0F8E7D02C00D15EE2884B98475BE2BB2A8E
S3151000BCE023D1BB2B21D1AC808B784A781B02CF781D
S3151000BCF0087913434A798249AF702B808B4206D854
S3151000BD00804A93420BD2804A934208D009E07F4979
S3151000BD108B4206D113020343AB80372302E036234E
S3151000BD2000E00023019A1370C8E77948834200D1D6
S3151000BD304CE164D87748834200D1CDE12FD87648BC
S3151000BD40834200D1D6E113D87448834200D19FE1D3
S3151000BD5004D83824A34200D10FE2B6E070488342DB
S3151000BD6000D19BE1FE30FF30834200D1C8E1ACE048
S3151000BD706C48834200D1A3E108D86B48834200D1B6
S3151000BD8092E16A48834200D194E19EE0684883427A
S3151000BD9000D19BE16748834200D1C5E195E0664832
S3151000BDA0834200D1BAE112D86448834200D1C1E17E
S3151000BDB004D86348834200D192E186E06148834209
S3151000BDC000D1A1E16048834200D1A3E17DE05F4A42
S3151000BDD0934200D17FE008D8083A934277D05C4A64
S3151000BDE03924934200D1C8E16FE0D1221201934267
S3151000BDF000D1DFE0574A934200D1E1E065E05648B2
S3151000BE00834200D118E12ED85448834200D13BE139
S3151000BE1012D85348834200D1EEE004D80338834247
S3151000BE2000D1D9E051E04F48834200D1D8E04E48C6
S3151000BE30834200D1FBE048E04C48834200D1E1E068
S3151000BE4008D84B48834200D11AE14A48834200D1B0
S3151000BE50DDE03AE04848834200D1DCE047488342BF
S3151000BE6000D1DEE031E04648834200D1F6E016D834
S3151000BE704448834200D1F7E008D84348834200D1B2
S3151000BE80E0E04248834200D1B0E01EE0404A9342CF
S3151000BE9000D1DDE03F4A934200D1EBE015E03E4889
S3151000BEA0834200D158E108D83C48834200D147E18B
S3151000BEB03B48834200D149E107E03A48834200D12A
S3151000BEC050E13948834200D152E1002455E1081C63
S3151000BED0364B291C7DE0081C354B291C9847042439
S3151000BEE04BE1C046D5CE0010C8220110C1B50010D6
S3151000BEF0CC220110FFFF0000FEFF0000D7CE00107D
S3151000BF001E2000001D200000030C00001F20000052
S3151000BF101C0D00000C0C0000020C0000020A0000B0
S3151000BF20030A0000060C0000040C0000050C0000BB
S3151000BF30070C0000090C0000170C0000120C000082
S3151000BF400D0C0000130C0000150C0000080D00006D
S3151000BF50010D0000150D00001B0E00000F0E000055
S3151000BF60030E0000060E00000A0E0000150E00005B
S3151000BF70110E0000130E0000170E0000190E00001F
S3151000BF80270E0000210E00001C0E00001D0E0000E2
S3151000BF90220E0000250E0000051B0000011B0000EC
S3151000BFA0031B0000061B0000081B000001DD00102B
S3151000BFB0E5DC0010081C794B291C98470124DCE0AD
S3151000BFC0081C774B291C98470F24D6E0081C291CFF
S3151000BFD0744B9847041CD0E0101C734B2A1C14E0B9
S3151000BFE0101C724B2A1C98471124C6E0101C704B6B
S3151000BFF02A1C98471224C0E0081C6E4B291C98472F
S3151000C0000624BAE0101C2A1C6B4B9847E2E7101C5A
S3151000C0106A4B2A1CF9E7101C694B2A1C98470D24F9
S3151000C020ABE0101C674B2A1C98470E24A5E0101C89
S3151000C030654B2A1C984775E0101C644B2A1C9847C0
S3151000C0400B249AE0101C624B2A1C9847102494E08B
S3151000C050081C604B291C984728248EE0081C5E4B50
S3151000C060291C9847292488E0081C5C4B291C9847F2
S3151000C070272482E0081C5A4B291C98472A247CE066
S3151000C080101C584B2A1CC0E7101C574B2A1CBCE727
S3151000C090081C564B291C98472B246EE0081C544B41
S3151000C0A0291C98472C2468E0101C524B2A1C9847D0
S3151000C0B0132462E0101C504B2A1C984714245CE091
S3151000C0C0101C4E4B2A1C9847152456E0101C4C4B3E
S3151000C0D02A1C9847162450E0101C4A4B2A1C94E739
S3151000C0E0101C484B2A1C9847A988041C464B2888C4
S3151000C0F0984742E0101C454B2A1C984723243CE0E5
S3151000C100101C434B2A1C80E7120A081C2A80291C83
S3151000C110404B5EE7101C404B2A1C76E7081C3F4B31
S3151000C120291C98473B2428E0101C3D4B2A1C984795
S3151000C130182422E0101C3B4B2A1C984720241CE094
S3151000C140101C394B2A1C9847332416E0101C374B09
S3151000C1502A1C9847302410E0101C354B2A1C98478F
S3151000C16034240AE0101C334B2A1C9847352404E06B
S3151000C170101C314B2A1C98473224019B1C7000243A
S3151000C1809CE5D0249AE5BB2A00D09EE6F5E7002C64
S3151000C19000D093E599E6201C05B0F0BDF9DE00103D
S3151000C1A005E1001029E1001079D00010F9D800102F
S3151000C1B075D9001031D30010CDD30010A5D40010BE
S3151000C1C02DD70010CDD7001085D80010ADD800108F
S3151000C1D0C3D800108DD90010BBD90010D1D90010CA
S3151000C1E0FBD9001029D8001053D80010D1CA00105E
S3151000C1F0FDCA0010F9E3001035E400107DE40010CC
S3151000C200C1E40010F5E4001021E30010C1E50010B0
S3151000C21049E5001029CA001095CA001059CA001025
S3151000C220D1E5001011E600105DE7001067E7001079
S3151000C2306DE7001073E700107FE70010F7B50E49A1
S3151000C24000240B680F1C1E1C0C4A15680192002B4B
S3151000C2500ED09A881968824207D1002C01D021602D
S3151000C26000E00E1C1D601D1C231C1C1C0B1CEEE785
S3151000C270019B3E601D60F7BDC8220110CC22011043
S3151000C280F7B5124A0090136811481F1C0021844606
S3151000C29004680192002B14D0D888009A1D68060AEB
S3151000C2A096420BD1FD2606400C2E07D1002901D04F
S3151000C2B00D6000E02F1C1C601C1C0B1C191C2B1C79
S3151000C2C0E8E7019B1F6063461C60F7BDC82201109A
S3151000C2D0CC22011030B5CF23002810D04A1E1F2AB9
S3151000C2E00DD8084A131CAA33198000231C1CC55CE0
S3151000C2F0AC3401331555DCB28C42F7D30023181C2D
S3151000C30030BDC046CE2F011010B5041CCF20002C16
S3151000C31006D0044BCE38211C9847034B1B7923704B
S3151000C32010BDC04695DB0010CE2F0110F0B5067972
S3151000C33089B0CF25032E38D8037811350F2B34D872
S3151000C3408023878C113D9B009F422ED8C57F837F0B
S3151000C350AD015B011D43C37E1D43437F1B011D437E
S3151000C360037F9B001D43124BEDB21E710379023BF6
S3151000C370012B01D802230371041C231C0B33618883
S3151000C38007932379007800930195258C621D0295F9
S3151000C390658C079B03950497064DA8472671051CC7
S3151000C3A0211C03482622044B9847281C09B0F0BDCF
S3151000C3B0CE2F01108DDA00104BF90010F0B587B0B2
S3151000C3C003AF4D49041C0B224C4B381C98470522D1
S3151000C3D04B4B1A8000234B4A13604B4A13704B4A3F
S3151000C3E013704B4B98474B4B98474B4B98474B4BBF
S3151000C3F09847002C09D02068002806D061680029CB
S3151000C40001D1E22675E0464B9847464B98470128DE
S3151000C410F7D84548454B98470028F2D1444B9847E2
S3151000C420444B98476B460122DC1C201C01A9524242
S3151000C430414B9847002802D12378392BF2D13F4B34
S3151000C4409847061E55D1031C01213D4A49429A18A8
S3151000C45012335181902BF7D13A4C813B23703A4BD2
S3151000C4603A4A6380002323710133581E1901014390
S3151000C470023311700132212BF7D1E033FF33A3843D
S3151000C480231C002573331D70231C72331D70231C4F
S3151000C49076331D70231CCC331D80221CA023D03272
S3151000C4A05B001380221CCE321380231CD2331D80D6
S3151000C4B0FA22231C5200D4331A80231CD6331D7043
S3151000C4C0201C234BE57625776577A577E5772584B8
S3151000C4D065849847231C072274331A70231C043270
S3151000C4E0AA331A802B1C7A5DAC330135E2540B2D1E
S3151000C4F0F8D1301C07B0F0BD801A01104BF90010AE
S3151000C5003C2F011070230110D8220110B81B011006
S3151000C51021E60010ADC70010ADC80010C5CA001046
S3151000C520E1C80010FDB20010C5CD0010FDB400101A
S3151000C5305DCE001055BB001015BC00101DDA0010A2
S3151000C5403E2F0110CE2F0110983A0000D92F01105E
S3151000C5502DC3001038B5451C031CCF20002D18D054
S3151000C5601A78032A15D8012A02D15A78002A10D02F
S3151000C5701C1C291C0622074B074898472378074896
S3151000C5800371074B98472378002B02D1281C054BC3
S3151000C590984738BD4BF90010D32F0110CE2F01103C
S3151000C5A02DC30010D9CE0010F0B58DB0061C12A800
S3151000C5B0077813A80078079014A800780890CF2061
S3151000C5C0022F2ED8B1422CD8012B2AD80C1F164D6B
S3151000C5D0A4B2AC4225D8341FA4B2AC4221D8079CD1
S3151000C5E0002C01D0022F1CD11C1C104B0D1C0992C3
S3151000C5F098470F4B011C5A88079B60426041039372
S3151000C600089B029704936423099F04AC5F434B3B3A
S3151000C610BFB211301B19009601950597054CA0471E
S3151000C62000200DB0F0BDC046FC3F000049DE0010F2
S3151000C630CE2F011061DE001010B5054B9847041E71
S3151000C64003D1D120034B00019847201C10BDC046D2
S3151000C65075DC00103DC20010F0B591B00D932D4B56
S3151000C6600A900B910C92169C98474B2507284DD88B
S3151000C6706388294A063B9BB28435934246D8238861
S3151000C680063B9BB2934241D8E388244A0A3B9BB2AD
S3151000C69093423BD8F423A288FF339A4236D80EAF82
S3151000C6A01F4B0120391C98471E4E051C33793B70D1
S3151000C6B000282AD11C4B984775363378011C013B4C
S3151000C6C0012B01D902233370164B1A1C75321078C0
S3151000C6D05A880C9B123000930D9BC0B2019323888D
S3151000C6E0029363880393A3880493E38805932389AD
S3151000C6F00693638904AC07930B9B08930A9B0993D3
S3151000C70029231B19094CA04700E0E225281C11B06B
S3151000C710F0BDC04651D000107A0C0000760C000017
S3151000C72095DB0010CE2F011049DE001081DF0010BE
S3151000C73038B5041C044B081C211C9847051C034BD8
S3151000C740201C9847281C38BDEDD2001081C200105D
S3151000C75010B5014CA04710BDDDD7001010B5CF2382
S3151000C76000280AD0002908D0002A06D00C78022CFE
S3151000C77003D1034B013198470023181C10BDC04646
S3151000C7809DE0001008B5034B9847031E00D0E22326
S3151000C790181C08BD75DC0010831EDBB203200E2B9F
S3151000C7A001D8014AD05C70478B1A01100022014B48
S3151000C7B01A807047D022011037B5CF2400290AD02D
S3151000C7C08A4208D30024131C01900A1C00940220EC
S3151000C7D0211C024DA847201C3EBDC04691E2001008
S3151000C7E037B5CF2400290AD08A4208D30024131C57
S3151000C7F001900A1C00940520211C024DA847201CFC
S3151000C8003EBDC04691E20010F0B50F1C161C002567
S3151000C810084C85B021883A1C00930290331C019570
S3151000C8200820054EB047281C23880133238005B005
S3151000C830F0BDC046D022011061E3001070B5051C92
S3151000C84000240C4B19680C4B1E688C4210DC0C2013
S3151000C8506318DA0FD318021C5B105A43B0180288FB
S3151000C860AA4201D2591EF0E7AA4202D95C1CECE793
S3151000C870002070BDE4220110DC22011037B5094BEF
S3151000C880051C081C0C1C9847002809D08268002A31
S3151000C89006D08388291C0092201C0022024CA04737
S3151000C8A03EBDC0463DC8001099E100100023064A5F
S3151000C8B01370064A1360064A1360064A1360064A46
S3151000C8C01360064A13607047D8220110E82201103F
S3151000C8D0E4220110D4220110E0220110DC22011002
S3151000C8E00A4B0B4A18604B0813600A4AC3181360A8
S3151000C8F0094A411813600323002203319943074B59
S3151000C90004391960064B1A607047C046EC220110B4
S3151000C910E8220110D4220110E0220110DC220110BD
S3151000C920E422011070B50B4B061C0C1C151C984705
S3151000C930002808D08068002805D0211C2A1C064B28
S3151000C9409847002004E0301C291C221C034B9847F2
S3151000C95070BDC0463DC800104BF9001035E60010FA
S3151000C96070B50C4B061C0C1C151C984700280BD0D8
S3151000C9708368002B08D083882B8082888168064BB9
S3151000C980201C9847002004E0301C291C221C034B55
S3151000C990984770BD3DC800104BF90010C1E6001055
S3151000C9A0F0B585B0041C0191002928D14388271CB5
S3151000C9B00093181C164B98470837002809D0806832
S3151000C9C0002806D0A388E288C018391C114B984756
S3151000C9D015E002AB9E1D00230F4D33802968321CD3
S3151000C9E00E4B009898472B68A088E2881818391CB7
S3151000C9F0084B9847608832882968094B98476088A1
S3151000CA002188019A074B9847002005B0F0BDC04613
S3151000CA103DC800104BF90010BC1B011061C9001075
S3151000CA2025C9001005E2001038B50C1C074B9847B5
S3151000CA306588074B281C984783782620DB0704D483
S3151000CA402088291C034B98473B2038BD49E100102C
S3151000CA503DC800107DC8001038B50D1C0A4B141CBB
S3151000CA6098472D88094B281C9847220A031C084C06
S3151000CA7091B2002803D082880023281C01E0281CCC
S3151000CA800122A0473B2038BD8DE100103DC80010A3
S3151000CA9049E2001010B5141C074B9847074B6088E5
S3151000CAA09847022381782220194003D1201C044B79
S3151000CAB098471F2010BDC04655E100103DC8001014
S3151000CAC0A1C900100A22014B1A707047B81B011039
S3151000CAD010B502780A70837844781B0223434B8082
S3151000CAE00379C0781B0203438B80002A03D1024AC4
S3151000CAF013780133137010BDB81B011008B5031C51
S3151000CB0042780078120202430A80DA789878120284
S3151000CB1002434A805A791879120202438A80881D84
S3151000CB20991D014B984708BD4BF90010F0B50C1C28
S3151000CB301F218BB0079302ABC9180F230B70404B04
S3151000CB40051C161C9847071C0120072F75D8002CAA
S3151000CB5013D112235F433B4BFB5C834201D0CF20A2
S3151000CB606BE004950094019402940394201C211CFC
S3151000CB70221C231C344DA8475EE02279062AEED9E2
S3151000CB806379102BEBD89A42E9D8237A042BE6D88E
S3151000CB90A379072BE3D8E379072BE0D8A378002BEA
S3151000CBA006D0002EDBD02948311C1C22284B984772
S3151000CBB0079B002B05D02748191C9A301022244BAE
S3151000CBC098476378A2789B001343122257431D4A55
S3151000CBD0DBB2BA5C002A16D1A079420702D5079AB1
S3151000CBE0002ABCD0C20701D5002EB8D066792178AC
S3151000CBF0E27800960190E0790290207A164C039024
S3151000CC00281CA04718E0012AA9D1E079420702D5CD
S3151000CC10079A002AA3D0C20701D5002E9FD06679A5
S3151000CC202178E2780096A67902900196207A0495EA
S3151000CC300390054C0120A04700200BB0F0BDC04664
S3151000CC4015D000103E2F011085D500104C30011064
S3151000CC504BF90010CE2F011065D30010F0B585B03A
S3151000CC60051C0C1C161C002168461022184B9847F0
S3151000CC700121002E01D1311C6E46002C16D1012740
S3151000CC80231C701D013E02780138303A7A439B18F6
S3151000CC900A225743B042F6D16A46684613701A0AFA
S3151000CCA042701A0C1B0E8270C37009E0CF20012C43
S3151000CCB00CD100236846F25CC2540133102BF9D113
S3151000CCC004206A462B1C034CA047002005B0F0BD7B
S3151000CCD05DF9001001D6001070B50C4B0E1C00212A
S3151000CCE0051C141C9847012307280DD811335843E7
S3151000CCF0074BC25CE023012A06D1B1000C43054B59
S3151000CD00E1B2281C98470023181C70BD15D00010DE
S3151000CD103E2F011051D60010F7B5CF2300292BD086
S3151000CD20052A29D801273D1C33249540254223D0B6
S3151000CD308C7E073C092C1FD8104B0C1C0021151C8F
S3151000CD40061C98473B1C072816D8122358430C4B31
S3151000CD50C75CE023002F0FD1211C1C22094B0A4867
S3151000CD609847231CA17E228A123300910195211C1B
S3151000CD70301C064CA0473B1C181CFEBD15D00010DD
S3151000CD803E2F01104BF900104C30011091D60010B7
S3151000CD9073B5CF24002B11D0002A0AD005290DD83F
S3151000CDA0012533268D40354208D09D7E073D092D3D
S3151000CDB004D89C7E0094024CA0470024201C76BD0B
S3151000CDC04DD70010F7B5C58807888688002D0CD179
S3151000CDD0194B381C311C2A1C9847031E2AD1381CA3
S3151000CDE0311C1A1C154CA04724E09622144C9200B4
S3151000CDF023885B19934201DD00232380011C114A0D
S3151000CE00238808319B180193181C2A1C0E4B98472F
S3151000CE10381C311C019A084B984700280AD1094B37
S3151000CE202288311CD218381C2B1C044EB04723887C
S3151000CE30ED182580F7BDC04685BB001019BB001044
S3151000CE40A8300110AC3401104BF9001008B5024B94
S3151000CE509847002008BDC04619B50010802210B5AD
S3151000CE600021084C92000848A04796220021920003
S3151000CE700648A0470022064B1A80064A064B1A603F
S3151000CE8010BDC0465DF90010AC320110AC34011073
S3151000CE90A8300110AC300110BC1B01100122014B4F
S3151000CEA01A607047F022011010B5041C074B1A685F
S3151000CEB0012A03D0064B00209847F7E71968012985
S3151000CEC002D100221A6000E0227010BDF02201107B
S3151000CED0C1B5001070477047F7B56B46DE1D0023CD
S3151000CEE033700F23134C032723700023E370124B68
S3151000CEF0011C1A881B8822711B0A062263710F48AF
S3151000CF000F4B6770A77098470E4D0F4B0E212B8055
S3151000CF100623A3710023201CE3710C4BAF809847A6
S3151000CF20301C0B4B98473378E220002B01D1AB68AD
S3151000CF301878FEBDAC3201103C2F0110B43201102E
S3151000CF404BF90010302F0110290300004DCE0010B0
S3151000CF50A9CE001038B50B23274C2370033363700A
S3151000CF602933A370254BE1701A881B8822711B0A7E
S3151000CF70637100232072637201282BD098421BD054
S3151000CF8002282FD11E4B12211A1CCE321288A272E1
S3151000CF90120AE2721A1CD03212882273120A6273B3
S3151000CFA01A1CD2321288D433A273120AE2731B8867
S3151000CFB023741B0A637416E0114B1249AA331D8899
S3151000CFC011482B0AA572E3722A1C104B0C35984790
S3151000CFD0A9B208E00A4B0C21CC331B88A3721B0A9A
S3151000CFE0E37200E00A210B1C083BA3711B12E371CC
S3151000CFF0201C074B984738BDAC3201103C2F01104E
S3151000D000CE2F01107A300110B83201104BF90010F2
S3151000D0104DCE00100C4B70B5041C08209C4211D04C
S3151000D020002312225A43094DD8B256197689A642C0
S3151000D03004D1002906D0535D0B7003E00133082B91
S3151000D040EFD1181C70BDC046FFFF00003E2F011027
S3151000D050002312225A430649D8B252185189054A5A
S3151000D060914203D00133082BF3D1181C7047C046E8
S3151000D0703E2F0110FFFF0000F7B50B78051C581E58
S3151000D0804E780F285AD8141C01F07EFB0A445858C3
S3151000D0904444584B2D1225085858393E3B204EE033
S3151000D0A03B20002E4BD02D0A15809670353846E061
S3151000D0B06B46DF1D01232D0A3B70281C391C204BA3
S3151000D0C09847072803D83B783B20002B37D065803C
S3151000D0D02671092033E03B20002E30D02D0A158012
S3151000D0E096702D382BE03B20002E28D000232D0AD9
S3151000D0F0158096709380D380138134381FE03B20BF
S3151000D100002E1CD0167203E03B20002E17D016718D
S3151000D110123814E03B20002E11D09370D6702A38A6
S3151000D1200DE03B20002E0AD02D0A16705580101DDA
S3151000D13000210522034B9847122000E00020FEBD77
S3151000D14015D000105DF90010F0B585B01D1C0AABA6
S3151000D1501B78019202930BAB1B78071C03930CAB45
S3151000D1601A8802230E1C234C391C23700C3363704F
S3151000D170A370214BE2701A881B8822711B0A1F4F5D
S3151000D18010221F486371B847330A267663760199D1
S3151000D190330C1022360E1B48A376E676B847231CAE
S3151000D1A02C331D70231C2A0A2D331A70231C2A0CAB
S3151000D1B02E331A70231C2D0E2F336A461D70231C16
S3151000D1C0127A30331A70231C002531336A461D70CB
S3151000D1D0231C127B32331A70231C33331D702C23FD
S3151000D1E0201CA3713421084BE5719847281C05B003
S3151000D1F0F0BDC046AC3201103C2F01104BF90010A7
S3151000D200B4320110C83201104DCE0010F0B5457879
S3151000D2100378304C2D021D43A585C37882788BB0D8
S3151000D2201B021A436B4605929B8A2021E38543799C
S3151000D23002791B021A436B4606921B8B061C238629
S3151000D240C37982791B021A436B4607926A469B8BF7
S3151000D25052186386437A011C0893231C127877337D
S3151000D26078341A700A3106221B4B201C9847337CDF
S3151000D27009931A4B98471A4E071E072F1BD81223CD
S3151000D2804343F01845816946242549190978062231
S3151000D290F15420216B465B181B78211C43706B469A
S3151000D2A09B8A023043816B461B8B83816B469B8B1B
S3151000D2B0C381094B9847122100234F4300930193D2
S3151000D2C0F6197189074A0291101C191C064CA047C1
S3151000D2D00BB0F0BDCE2F01104BF9001051D000103D
S3151000D2E03E2F01105A23011049D10010042210B507
S3151000D2F00C4B00241A700A325A709A700A4AD97066
S3151000D300118812881971120A5A7101221A7292180A
S3151000D31058729A71DC71181C0A21044B9847201C0C
S3151000D32010BDC046AC3201103C2F01104DCE00107E
S3151000D330021C08B5437800781B02184308809378BE
S3151000D3408B700021054B9847072806D8122358439F
S3151000D350034B181801235B42438108BD15D00010FA
S3151000D3603E2F0110F7B500931223041C08A8077866
S3151000D37009A806780AA805780BA800780190104825
S3151000D38003700E23C4700F4C437083702388248857
S3151000D39003716B461B78240AC3726B461B79447162
S3151000D3A0C3730823837100230A244172C3711021A9
S3151000D3B0054B077346738573047282729847F7BDDF
S3151000D3C0AC3201103C2F01104DCE0010F8B50E787E
S3151000D3D0031CB01E05285DD8151C0C1C01F0D4F9D1
S3151000D3E00D035A2F40470920002A54D01B0A538098
S3151000D3F08B782948137100211CE00920002A4AD095
S3151000D400254C1B0A53808B780027101C211C137087
S3151000D410224E17712E3117223230B047281C211C8C
S3151000D42010221E312230B047A11CA81D1C22B04765
S3151000D430201C391C46221A4B984709202BE0164D02
S3151000D4400231281C1022154E2E30B047281C211CE4
S3151000D4503F3012310622B047237E3E352B7019E03D
S3151000D4600D48023110220D4B1E30984712E00A4D1E
S3151000D47002311022094EA81CB047281C211CE37C3F
S3151000D480A27C1B0213431430143108226B82B0475E
S3151000D490237F2B770020F8BD142301104BF90010C1
S3151000D4A05DF9001070B50C78031C4978072C5CD810
S3151000D4B0201C01F069F9045A5A5A0B5A1F1F0A20E8
S3151000D4C0002A53D01B0A138091704FE0002A0BD00C
S3151000D4D01B0A1380002902D10123937004E0002354
S3151000D4E09370022902D1D3700C203FE00129FBD1A1
